{
  "address": "0x3e0f973D2262b469b8f18958ec06627A8274FC9B",
  "abi": [
    {
      "inputs": [
        {
          "internalType": "address payable",
          "name": "diceGameAddress",
          "type": "address"
        }
      ],
      "stateMutability": "nonpayable",
      "type": "constructor"
    },
    {
      "anonymous": false,
      "inputs": [
        {
          "indexed": true,
          "internalType": "address",
          "name": "previousOwner",
          "type": "address"
        },
        {
          "indexed": true,
          "internalType": "address",
          "name": "newOwner",
          "type": "address"
        }
      ],
      "name": "OwnershipTransferred",
      "type": "event"
    },
    {
      "inputs": [],
      "name": "diceGame",
      "outputs": [
        {
          "internalType": "contract DiceGame",
          "name": "",
          "type": "address"
        }
      ],
      "stateMutability": "view",
      "type": "function"
    },
    {
      "inputs": [],
      "name": "owner",
      "outputs": [
        {
          "internalType": "address",
          "name": "",
          "type": "address"
        }
      ],
      "stateMutability": "view",
      "type": "function"
    },
    {
      "inputs": [],
      "name": "renounceOwnership",
      "outputs": [],
      "stateMutability": "nonpayable",
      "type": "function"
    },
    {
      "inputs": [
        {
          "internalType": "address",
          "name": "newOwner",
          "type": "address"
        }
      ],
      "name": "transferOwnership",
      "outputs": [],
      "stateMutability": "nonpayable",
      "type": "function"
    }
  ],
  "transactionHash": "0x438f83f2df4a034b6d2c67a325c2aee3ab85f3380cd10047e216931639cdea6e",
  "args": [
    "0xDA769B94647140d16e0366142a17B3307E2b8A1d"
  ],
  "numDeployments": 1,
  "solcInputHash": "68c87e97f8cc26816e4cdedf6c14d5ee",
  "bytecode": "0x608060405234801561001057600080fd5b5060405161033838038061033883398101604081905261002f916100ad565b6100383361005d565b600180546001600160a01b0319166001600160a01b03929092169190911790556100dd565b600080546001600160a01b038381166001600160a01b0319831681178455604051919092169283917f8be0079c531659141344cd1fd0a4f28419497f9722a3daafe3b4186f6b6457e09190a35050565b6000602082840312156100bf57600080fd5b81516001600160a01b03811681146100d657600080fd5b9392505050565b61024c806100ec6000396000f3fe608060405234801561001057600080fd5b506004361061004c5760003560e01c8063715018a6146100515780638da5cb5b1461005b5780638e288fd114610084578063f2fde38b14610097575b600080fd5b6100596100aa565b005b6000546001600160a01b03165b6040516001600160a01b03909116815260200160405180910390f35b600154610068906001600160a01b031681565b6100596100a53660046101e6565b6100be565b6100b261013c565b6100bc6000610196565b565b6100c661013c565b6001600160a01b0381166101305760405162461bcd60e51b815260206004820152602660248201527f4f776e61626c653a206e6577206f776e657220697320746865207a65726f206160448201526564647265737360d01b60648201526084015b60405180910390fd5b61013981610196565b50565b6000546001600160a01b031633146100bc5760405162461bcd60e51b815260206004820181905260248201527f4f776e61626c653a2063616c6c6572206973206e6f7420746865206f776e65726044820152606401610127565b600080546001600160a01b038381166001600160a01b0319831681178455604051919092169283917f8be0079c531659141344cd1fd0a4f28419497f9722a3daafe3b4186f6b6457e09190a35050565b6000602082840312156101f857600080fd5b81356001600160a01b038116811461020f57600080fd5b939250505056fea2646970667358221220b99a9aeb98910d57fb313eab3d4d895a60179dba1abba7e5e30ecf4796c6884764736f6c63430008110033",
  "devdoc": {
    "kind": "dev",
    "methods": {
      "owner()": {
        "details": "Returns the address of the current owner."
      },
      "renounceOwnership()": {
        "details": "Leaves the contract without owner. It will not be possible to call `onlyOwner` functions anymore. Can only be called by the current owner. NOTE: Renouncing ownership will leave the contract without an owner, thereby removing any functionality that is only available to the owner."
      },
      "transferOwnership(address)": {
        "details": "Transfers ownership of the contract to a new account (`newOwner`). Can only be called by the current owner."
      }
    },
    "version": 1
  },
  "userdoc": {
    "kind": "user",
    "methods": {},
    "version": 1
  },
  "storageLayout": {
    "storage": [
      {
        "astId": 7,
        "contract": "contracts/RiggedRoll.sol:RiggedRoll",
        "label": "_owner",
        "offset": 0,
        "slot": "0",
        "type": "t_address"
      },
      {
        "astId": 308,
        "contract": "contracts/RiggedRoll.sol:RiggedRoll",
        "label": "diceGame",
        "offset": 0,
        "slot": "1",
        "type": "t_contract(DiceGame)298"
      }
    ],
    "types": {
      "t_address": {
        "encoding": "inplace",
        "label": "address",
        "numberOfBytes": "20"
      },
      "t_contract(DiceGame)298": {
        "encoding": "inplace",
        "label": "contract DiceGame",
        "numberOfBytes": "20"
      }
    }
  }
}